{
    "contractName": "carewellEcommercePlatform",
    "abi": [
        {
            "inputs": [
                {
                    "internalType": "string",
                    "name": "_name",
                    "type": "string"
                },
                {
                    "internalType": "uint256",
                    "name": "_price",
                    "type": "uint256"
                },
                {
                    "internalType": "uint256",
                    "name": "_quantity",
                    "type": "uint256"
                },
                {
                    "internalType": "string",
                    "name": "_description",
                    "type": "string"
                },
                {
                    "internalType": "string",
                    "name": "_image",
                    "type": "string"
                },
                {
                    "internalType": "string",
                    "name": "_category",
                    "type": "string"
                }
            ],
            "name": "addProduct",
            "outputs": [],
            "stateMutability": "nonpayable",
            "type": "function"
        },
        {
            "inputs": [
                {
                    "internalType": "string",
                    "name": "_name",
                    "type": "string"
                },
                {
                    "internalType": "string",
                    "name": "_phone",
                    "type": "string"
                },
                {
                    "internalType": "string",
                    "name": "_address",
                    "type": "string"
                }
            ],
            "name": "addUser",
            "outputs": [],
            "stateMutability": "nonpayable",
            "type": "function"
        },
        {
            "inputs": [
                {
                    "internalType": "string",
                    "name": "_couponName",
                    "type": "string"
                }
            ],
            "name": "applyCoupon",
            "outputs": [
                {
                    "internalType": "uint256",
                    "name": "",
                    "type": "uint256"
                }
            ],
            "stateMutability": "view",
            "type": "function"
        },
        {
            "inputs": [],
            "name": "carewellToken",
            "outputs": [
                {
                    "internalType": "contract IERC20",
                    "name": "",
                    "type": "address"
                }
            ],
            "stateMutability": "view",
            "type": "function"
        },
        {
            "inputs": [],
            "name": "cost",
            "outputs": [
                {
                    "internalType": "uint256",
                    "name": "",
                    "type": "uint256"
                }
            ],
            "stateMutability": "view",
            "type": "function"
        },
        {
            "inputs": [],
            "name": "couponCount",
            "outputs": [
                {
                    "internalType": "uint256",
                    "name": "",
                    "type": "uint256"
                }
            ],
            "stateMutability": "view",
            "type": "function"
        },
        {
            "inputs": [
                {
                    "internalType": "uint256",
                    "name": "",
                    "type": "uint256"
                }
            ],
            "name": "coupons",
            "outputs": [
                {
                    "internalType": "uint256",
                    "name": "id",
                    "type": "uint256"
                },
                {
                    "internalType": "string",
                    "name": "name",
                    "type": "string"
                },
                {
                    "internalType": "uint256",
                    "name": "discountPercentage",
                    "type": "uint256"
                },
                {
                    "internalType": "uint256",
                    "name": "status",
                    "type": "uint256"
                }
            ],
            "stateMutability": "view",
            "type": "function"
        },
        {
            "inputs": [
                {
                    "internalType": "string",
                    "name": "_name",
                    "type": "string"
                },
                {
                    "internalType": "uint256",
                    "name": "_discountPercentage",
                    "type": "uint256"
                }
            ],
            "name": "createCoupon",
            "outputs": [],
            "stateMutability": "nonpayable",
            "type": "function"
        },
        {
            "inputs": [],
            "name": "destroy",
            "outputs": [],
            "stateMutability": "nonpayable",
            "type": "function"
        },
        {
            "inputs": [
                {
                    "internalType": "uint256",
                    "name": "_couponId",
                    "type": "uint256"
                }
            ],
            "name": "getCoupon",
            "outputs": [
                {
                    "internalType": "uint256",
                    "name": "id",
                    "type": "uint256"
                },
                {
                    "internalType": "string",
                    "name": "name",
                    "type": "string"
                },
                {
                    "internalType": "uint256",
                    "name": "discountPercentage",
                    "type": "uint256"
                },
                {
                    "internalType": "uint256",
                    "name": "status",
                    "type": "uint256"
                }
            ],
            "stateMutability": "view",
            "type": "function"
        },
        {
            "inputs": [
                {
                    "internalType": "uint256",
                    "name": "_orderId",
                    "type": "uint256"
                }
            ],
            "name": "getOrder",
            "outputs": [
                {
                    "internalType": "uint256",
                    "name": "id",
                    "type": "uint256"
                },
                {
                    "internalType": "uint256[]",
                    "name": "productIds",
                    "type": "uint256[]"
                },
                {
                    "internalType": "uint256[]",
                    "name": "quantities",
                    "type": "uint256[]"
                },
                {
                    "internalType": "uint256",
                    "name": "price",
                    "type": "uint256"
                },
                {
                    "internalType": "uint256",
                    "name": "status",
                    "type": "uint256"
                },
                {
                    "internalType": "uint256",
                    "name": "dateTime",
                    "type": "uint256"
                }
            ],
            "stateMutability": "view",
            "type": "function"
        },
        {
            "inputs": [
                {
                    "internalType": "uint256",
                    "name": "_productId",
                    "type": "uint256"
                }
            ],
            "name": "getProduct",
            "outputs": [
                {
                    "internalType": "uint256",
                    "name": "id",
                    "type": "uint256"
                },
                {
                    "internalType": "string",
                    "name": "name",
                    "type": "string"
                },
                {
                    "internalType": "uint256",
                    "name": "price",
                    "type": "uint256"
                },
                {
                    "internalType": "uint256",
                    "name": "quantity",
                    "type": "uint256"
                },
                {
                    "internalType": "string",
                    "name": "description",
                    "type": "string"
                },
                {
                    "internalType": "string",
                    "name": "image",
                    "type": "string"
                },
                {
                    "internalType": "uint256",
                    "name": "status",
                    "type": "uint256"
                },
                {
                    "internalType": "string",
                    "name": "category",
                    "type": "string"
                }
            ],
            "stateMutability": "view",
            "type": "function"
        },
        {
            "inputs": [
                {
                    "internalType": "address",
                    "name": "_walletAddress",
                    "type": "address"
                }
            ],
            "name": "getUser",
            "outputs": [
                {
                    "internalType": "uint256",
                    "name": "id",
                    "type": "uint256"
                },
                {
                    "internalType": "string",
                    "name": "name",
                    "type": "string"
                },
                {
                    "internalType": "string",
                    "name": "phone",
                    "type": "string"
                },
                {
                    "internalType": "string",
                    "name": "_address",
                    "type": "string"
                },
                {
                    "internalType": "uint256[]",
                    "name": "orderIds",
                    "type": "uint256[]"
                },
                {
                    "internalType": "address payable",
                    "name": "walletAddress",
                    "type": "address"
                }
            ],
            "stateMutability": "view",
            "type": "function"
        },
        {
            "inputs": [
                {
                    "internalType": "uint256[]",
                    "name": "_productIds",
                    "type": "uint256[]"
                },
                {
                    "internalType": "uint256[]",
                    "name": "_quantities",
                    "type": "uint256[]"
                },
                {
                    "internalType": "uint256",
                    "name": "_couponId",
                    "type": "uint256"
                }
            ],
            "name": "initiateOrder",
            "outputs": [],
            "stateMutability": "payable",
            "type": "function"
        },
        {
            "inputs": [],
            "name": "orderCount",
            "outputs": [
                {
                    "internalType": "uint256",
                    "name": "",
                    "type": "uint256"
                }
            ],
            "stateMutability": "view",
            "type": "function"
        },
        {
            "inputs": [
                {
                    "internalType": "uint256",
                    "name": "_orderId",
                    "type": "uint256"
                }
            ],
            "name": "orderDelivered",
            "outputs": [],
            "stateMutability": "nonpayable",
            "type": "function"
        },
        {
            "inputs": [],
            "name": "owner",
            "outputs": [
                {
                    "internalType": "address payable",
                    "name": "",
                    "type": "address"
                }
            ],
            "stateMutability": "view",
            "type": "function"
        },
        {
            "inputs": [],
            "name": "productCount",
            "outputs": [
                {
                    "internalType": "uint256",
                    "name": "",
                    "type": "uint256"
                }
            ],
            "stateMutability": "view",
            "type": "function"
        },
        {
            "inputs": [
                {
                    "internalType": "uint256",
                    "name": "",
                    "type": "uint256"
                }
            ],
            "name": "products",
            "outputs": [
                {
                    "internalType": "uint256",
                    "name": "id",
                    "type": "uint256"
                },
                {
                    "internalType": "string",
                    "name": "name",
                    "type": "string"
                },
                {
                    "internalType": "uint256",
                    "name": "price",
                    "type": "uint256"
                },
                {
                    "internalType": "uint256",
                    "name": "quantity",
                    "type": "uint256"
                },
                {
                    "internalType": "string",
                    "name": "description",
                    "type": "string"
                },
                {
                    "internalType": "string",
                    "name": "image",
                    "type": "string"
                },
                {
                    "internalType": "uint256",
                    "name": "status",
                    "type": "uint256"
                },
                {
                    "internalType": "string",
                    "name": "category",
                    "type": "string"
                }
            ],
            "stateMutability": "view",
            "type": "function"
        },
        {
            "inputs": [
                {
                    "internalType": "address payable",
                    "name": "_newOwner",
                    "type": "address"
                }
            ],
            "name": "transferOwnership",
            "outputs": [],
            "stateMutability": "nonpayable",
            "type": "function"
        },
        {
            "inputs": [
                {
                    "internalType": "address",
                    "name": "_carewellToken",
                    "type": "address"
                }
            ],
            "name": "updateCarewellToken",
            "outputs": [],
            "stateMutability": "nonpayable",
            "type": "function"
        },
        {
            "inputs": [
                {
                    "internalType": "uint256",
                    "name": "_couponId",
                    "type": "uint256"
                },
                {
                    "internalType": "uint256",
                    "name": "_discountPercentage",
                    "type": "uint256"
                }
            ],
            "name": "updateCouponDiscountPercentage",
            "outputs": [],
            "stateMutability": "nonpayable",
            "type": "function"
        },
        {
            "inputs": [
                {
                    "internalType": "uint256",
                    "name": "_couponId",
                    "type": "uint256"
                },
                {
                    "internalType": "uint256",
                    "name": "_status",
                    "type": "uint256"
                }
            ],
            "name": "updateCouponStatus",
            "outputs": [],
            "stateMutability": "nonpayable",
            "type": "function"
        },
        {
            "inputs": [
                {
                    "internalType": "uint256",
                    "name": "_productId",
                    "type": "uint256"
                },
                {
                    "internalType": "uint256",
                    "name": "_price",
                    "type": "uint256"
                }
            ],
            "name": "updateProductPrice",
            "outputs": [],
            "stateMutability": "nonpayable",
            "type": "function"
        },
        {
            "inputs": [
                {
                    "internalType": "uint256",
                    "name": "_productId",
                    "type": "uint256"
                },
                {
                    "internalType": "uint256",
                    "name": "_quantity",
                    "type": "uint256"
                }
            ],
            "name": "updateProductQuantity",
            "outputs": [],
            "stateMutability": "nonpayable",
            "type": "function"
        },
        {
            "inputs": [
                {
                    "internalType": "uint256",
                    "name": "_productId",
                    "type": "uint256"
                },
                {
                    "internalType": "uint256",
                    "name": "_status",
                    "type": "uint256"
                }
            ],
            "name": "updateProductStatus",
            "outputs": [],
            "stateMutability": "nonpayable",
            "type": "function"
        },
        {
            "inputs": [
                {
                    "internalType": "address",
                    "name": "_walletAddress",
                    "type": "address"
                },
                {
                    "internalType": "string",
                    "name": "_address",
                    "type": "string"
                }
            ],
            "name": "updateUserAddress",
            "outputs": [],
            "stateMutability": "nonpayable",
            "type": "function"
        },
        {
            "inputs": [
                {
                    "internalType": "address",
                    "name": "_walletAddress",
                    "type": "address"
                },
                {
                    "internalType": "string",
                    "name": "_phone",
                    "type": "string"
                }
            ],
            "name": "updateUserPhone",
            "outputs": [],
            "stateMutability": "nonpayable",
            "type": "function"
        },
        {
            "inputs": [],
            "name": "userCount",
            "outputs": [
                {
                    "internalType": "uint256",
                    "name": "",
                    "type": "uint256"
                }
            ],
            "stateMutability": "view",
            "type": "function"
        }
    ],
    "bytecode": "6080604052670de0b6b3a7640000600255600060035560006004556000600555600060065534801561003057600080fd5b506132b3806100406000396000f3fe6080604052600436106101c15760003560e01c80638d418b26116100f7578063d09ef24111610095578063e1d7b3db11610064578063e1d7b3db14610511578063e742a18214610531578063f2fde38b14610551578063fcc93b0b1461057157600080fd5b8063d09ef24114610493578063d0e23923146104c5578063d75ff08c146104db578063e0f6ef87146104fb57600080fd5b806395c5fed4116100d157806395c5fed4146104135780639c3bddb2146104335780639ee82a0e14610453578063b9db15b41461047357600080fd5b80638d418b26146103b35780638da5cb5b146103d3578063936e3169146103f357600080fd5b80633df3c68e1161016457806380cadc731161013e57806380cadc731461032657806383197ef0146103465780638585ed741461035b5780638b8b5fb61461037b57600080fd5b80633df3c68e146102a05780636f77926b146102c05780637acc0b20146102f257600080fd5b806313faede6116101a057806313faede6146102315780632453ffa81461024757806329fbfc411461025d57806330828e921461027057600080fd5b8062d78d9e146101c657806307973ccf146101e85780630a2f449e14610211575b600080fd5b3480156101d257600080fd5b506101e66101e136600461284b565b610591565b005b3480156101f457600080fd5b506101fe60045481565b6040519081526020015b60405180910390f35b34801561021d57600080fd5b506101e661022c366004612890565b610681565b34801561023d57600080fd5b506101fe60025481565b34801561025357600080fd5b506101fe60055481565b6101e661026b3660046129cf565b610947565b34801561027c57600080fd5b5061029061028b366004612a3c565b610e3b565b6040516102089493929190612aa2565b3480156102ac57600080fd5b506101fe6102bb366004612ace565b610eec565b3480156102cc57600080fd5b506102e06102db366004612b23565b610fc3565b60405161020896959493929190612b82565b3480156102fe57600080fd5b5061031261030d366004612a3c565b61133c565b604051610208989796959493929190612bf1565b34801561033257600080fd5b506101e6610341366004612c68565b61159d565b34801561035257600080fd5b506101e6611663565b34801561036757600080fd5b506101e6610376366004612c8a565b61169b565b34801561038757600080fd5b5060005461039b906001600160a01b031681565b6040516001600160a01b039091168152602001610208565b3480156103bf57600080fd5b506101e66103ce366004612c68565b6117ca565b3480156103df57600080fd5b5060015461039b906001600160a01b031681565b3480156103ff57600080fd5b5061029061040e366004612a3c565b611857565b34801561041f57600080fd5b506101e661042e366004612cda565b611982565b34801561043f57600080fd5b506101e661044e366004612c68565b611b7f565b34801561045f57600080fd5b506101e661046e366004612c68565b611c3c565b34801561047f57600080fd5b5061031261048e366004612a3c565b611d02565b34801561049f57600080fd5b506104b36104ae366004612a3c565b612080565b60405161020896959493929190612d62565b3480156104d157600080fd5b506101fe60065481565b3480156104e757600080fd5b506101e66104f6366004612c8a565b61237a565b34801561050757600080fd5b506101fe60035481565b34801561051d57600080fd5b506101e661052c366004612b23565b6124a0565b34801561053d57600080fd5b506101e661054c366004612a3c565b61255e565b34801561055d57600080fd5b506101e661056c366004612b23565b6125ee565b34801561057d57600080fd5b506101e661058c366004612c68565b6126a7565b6001546001600160a01b031633146105c45760405162461bcd60e51b81526004016105bb90612dac565b60405180910390fd5b60008251116105e55760405162461bcd60e51b81526004016105bb90612dee565b600081116106055760405162461bcd60e51b81526004016105bb90612e2f565b6006805490600061061583612e92565b90915550506040805160808101825260065480825260208083018681528385018690526001606085018190526000938452600a90925293909120825181559251919291908201906106669082612f33565b50604082015160028201556060909101516003909101555050565b6001546001600160a01b031633146106ab5760405162461bcd60e51b81526004016105bb90612dac565b60008651116106cc5760405162461bcd60e51b81526004016105bb90612dee565b6000851161071c5760405162461bcd60e51b815260206004820152601f60248201527f50726963652073686f756c642062652067726561746572207468616e20302e0060448201526064016105bb565b6000841161073c5760405162461bcd60e51b81526004016105bb90612ff3565b600083511161079e5760405162461bcd60e51b815260206004820152602860248201527f4465736372697074696f6e2073686f756c64206e6f7420626520656d7074792060448201526737b910373ab6361760c11b60648201526084016105bb565b60008251116107fa5760405162461bcd60e51b815260206004820152602260248201527f496d6167652073686f756c64206e6f7420626520656d707479206f72206e756c604482015261361760f11b60648201526084016105bb565b60008151116108595760405162461bcd60e51b815260206004820152602560248201527f43617465676f72792073686f756c64206e6f7420626520656d707479206f7220604482015264373ab6361760d91b60648201526084016105bb565b6003805490600061086983612e92565b9190505550604051806101000160405280600354815260200187815260200186815260200185815260200184815260200183815260200160018152602001828152506007600060035481526020019081526020016000206000820151816000015560208201518160010190816108df9190612f33565b506040820151600282015560608201516003820155608082015160048201906109089082612f33565b5060a0820151600582019061091d9082612f33565b5060c0820151600682015560e0820151600782019061093c9082612f33565b505050505050505050565b60008351116109985760405162461bcd60e51b815260206004820181905260248201527f50726f64756374206964732073686f756c64206e6f7420626520656d7074792e60448201526064016105bb565b60008251116109e95760405162461bcd60e51b815260206004820152601f60248201527f5175616e7469746965732073686f756c64206e6f7420626520656d7074792e0060448201526064016105bb565b8151835114610a4e5760405162461bcd60e51b815260206004820152602b60248201527f50726f647563742069647320616e64207175616e7469746965732073686f756c60448201526a321031329032b8bab0b61760a91b60648201526084016105bb565b6000805b8451811015610c165760076000868381518110610a7157610a71613035565b6020026020010151815260200190815260200160002060060154600114610ada5760405162461bcd60e51b815260206004820152601960248201527f50726f647563742073686f756c64206265206163746976652e0000000000000060448201526064016105bb565b838181518110610aec57610aec613035565b602002602001015160076000878481518110610b0a57610b0a613035565b60200260200101518152602001908152602001600020600301541015610ba45760405162461bcd60e51b815260206004820152604360248201527f50726f64756374207175616e746974792073686f756c6420626520677265617460448201527f6572207468616e206f7220657175616c20746f206f72646572207175616e74696064820152623a3c9760e91b608482015260a4016105bb565b838181518110610bb657610bb6613035565b602002602001015160076000878481518110610bd457610bd4613035565b6020026020010151815260200190815260200160002060020154610bf8919061304b565b610c02908361306a565b915080610c0e81612e92565b915050610a52565b508115610cb4576000828152600a6020526040902060030154600114610c7e5760405162461bcd60e51b815260206004820152601860248201527f436f75706f6e2073686f756c64206265206163746976652e000000000000000060448201526064016105bb565b6000828152600a6020526040902060020154606490610c9d908361304b565b610ca79190613082565b610cb190826130a4565b90505b6000546001546002546001600160a01b03928316926323b872dd923392911690610cde9086613082565b6040516001600160e01b031960e086901b1681526001600160a01b03938416600482015292909116602483015260448201526064016020604051808303816000875af1158015610d32573d6000803e3d6000fd5b505050506040513d601f19601f82011682018060405250810190610d5691906130bb565b5060058054906000610d6783612e92565b90915550506040805160c0810182526005548082526020808301888152838501889052606084018690526001608085018190524260a086015260009384526009835294909220835181559151805193949293610dca938501929190910190612734565b5060408201518051610de6916002840191602090910190612734565b5060608201516003820155608082015160048083019190915560a09092015160059182015581546000908152600860209081526040822092549290930180546001810182559082529290209091015550505050565b600a6020526000908152604090208054600182018054919291610e5d90612eab565b80601f0160208091040260200160405190810160405280929190818152602001828054610e8990612eab565b8015610ed65780601f10610eab57610100808354040283529160200191610ed6565b820191906000526020600020905b815481529060010190602001808311610eb957829003601f168201915b5050505050908060020154908060030154905084565b600080825111610f4f5760405162461bcd60e51b815260206004820152602860248201527f436f75706f6e206e616d652073686f756c64206e6f7420626520656d7074792060448201526737b910373ab6361760c11b60648201526084016105bb565b60015b6006548111610fba578280519060200120600a6000838152602001908152602001600020600101604051610f8691906130dd565b604051809103902003610fa8576000908152600a602052604090205492915050565b80610fb281612e92565b915050610f52565b50600092915050565b60006060808080846001600160a01b038716610ff15760405162461bcd60e51b81526004016105bb90613153565b6001546001600160a01b03163314806110125750336001600160a01b038816145b6110705760405162461bcd60e51b815260206004820152602960248201527f4f6e6c79206f776e657220616e6420757365722063616e206765742075736572604482015268103232ba30b4b6399760b91b60648201526084016105bb565b60015b6004548111611331576000818152600860205260409020600501546001600160a01b03808a1691160361131f576000600860008381526020019081526020016000206040518060c0016040529081600082015481526020016001820180546110da90612eab565b80601f016020809104026020016040519081016040528092919081815260200182805461110690612eab565b80156111535780601f1061112857610100808354040283529160200191611153565b820191906000526020600020905b81548152906001019060200180831161113657829003601f168201915b5050505050815260200160028201805461116c90612eab565b80601f016020809104026020016040519081016040528092919081815260200182805461119890612eab565b80156111e55780601f106111ba576101008083540402835291602001916111e5565b820191906000526020600020905b8154815290600101906020018083116111c857829003601f168201915b505050505081526020016003820180546111fe90612eab565b80601f016020809104026020016040519081016040528092919081815260200182805461122a90612eab565b80156112775780601f1061124c57610100808354040283529160200191611277565b820191906000526020600020905b81548152906001019060200180831161125a57829003601f168201915b50505050508152602001600482018054806020026020016040519081016040528092919081815260200182805480156112cf57602002820191906000526020600020905b8154815260200190600101908083116112bb575b5050509183525050600591909101546001600160a01b031660209182015281519082015160408301516060840151608085015160a090950151939c50919a50985096509094509250611333915050565b8061132981612e92565b915050611073565b505b91939550919395565b6007602052600090815260409020805460018201805491929161135e90612eab565b80601f016020809104026020016040519081016040528092919081815260200182805461138a90612eab565b80156113d75780601f106113ac576101008083540402835291602001916113d7565b820191906000526020600020905b8154815290600101906020018083116113ba57829003601f168201915b5050505050908060020154908060030154908060040180546113f890612eab565b80601f016020809104026020016040519081016040528092919081815260200182805461142490612eab565b80156114715780601f1061144657610100808354040283529160200191611471565b820191906000526020600020905b81548152906001019060200180831161145457829003601f168201915b50505050509080600501805461148690612eab565b80601f01602080910402602001604051908101604052809291908181526020018280546114b290612eab565b80156114ff5780601f106114d4576101008083540402835291602001916114ff565b820191906000526020600020905b8154815290600101906020018083116114e257829003601f168201915b50505050509080600601549080600701805461151a90612eab565b80601f016020809104026020016040519081016040528092919081815260200182805461154690612eab565b80156115935780601f1061156857610100808354040283529160200191611593565b820191906000526020600020905b81548152906001019060200180831161157657829003601f168201915b5050505050905088565b6001546001600160a01b031633146115c75760405162461bcd60e51b81526004016105bb90612dac565b6000821180156115d957506003548211155b6115f55760405162461bcd60e51b81526004016105bb9061319e565b8015806116025750806001145b61164e5760405162461bcd60e51b815260206004820152601f60248201527f5374617475732073686f756c64206265206569746865722030206f7220312e0060448201526064016105bb565b60009182526007602052604090912060060155565b6001546001600160a01b0316331461168d5760405162461bcd60e51b81526004016105bb90612dac565b6001546001600160a01b0316ff5b6001600160a01b0382166116c15760405162461bcd60e51b81526004016105bb90613153565b6001546001600160a01b03163314806116e25750336001600160a01b038316145b6117415760405162461bcd60e51b815260206004820152602a60248201527f4f6e6c79206f776e657220616e6420757365722063616e20757064617465207560448201526939b2b910383437b7329760b11b60648201526084016105bb565b60008151116117625760405162461bcd60e51b81526004016105bb906131cb565b60015b60045481116117c5576000818152600860205260409020600501546001600160a01b038085169116036117b35760008181526008602052604090206002016117ad8382612f33565b50505050565b806117bd81612e92565b915050611765565b505050565b6001546001600160a01b031633146117f45760405162461bcd60e51b81526004016105bb90612dac565b60008211801561180657506006548211155b6118225760405162461bcd60e51b81526004016105bb9061320d565b600081116118425760405162461bcd60e51b81526004016105bb90612e2f565b6000918252600a602052604090912060020155565b6000606060008060008511801561187057506006548511155b61188c5760405162461bcd60e51b81526004016105bb9061320d565b6000600a6000878152602001908152602001600020604051806080016040529081600082015481526020016001820180546118c690612eab565b80601f01602080910402602001604051908101604052809291908181526020018280546118f290612eab565b801561193f5780601f106119145761010080835404028352916020019161193f565b820191906000526020600020905b81548152906001019060200180831161192257829003601f168201915b5050505050815260200160028201548152602001600382015481525050905080600001518160200151826040015183606001519450945094509450509193509193565b60008351116119a35760405162461bcd60e51b81526004016105bb90612dee565b60008251116119c45760405162461bcd60e51b81526004016105bb906131cb565b60008151116119e55760405162461bcd60e51b81526004016105bb90613239565b33611a025760405162461bcd60e51b81526004016105bb90613153565b6001546001600160a01b03163303611a5c5760405162461bcd60e51b815260206004820152601e60248201527f4f776e65722063616e6e6f7420626520616464656420617320757365722e000060448201526064016105bb565b60048054906000611a6c83612e92565b91905055506040518060c001604052806004548152602001848152602001838152602001828152602001600067ffffffffffffffff811115611ab057611ab0612794565b604051908082528060200260200182016040528015611ad9578160200160208202803683370190505b508152336020918201526004546000908152600882526040902082518155908201516001820190611b0a9082612f33565b5060408201516002820190611b1f9082612f33565b5060608201516003820190611b349082612f33565b5060808201518051611b50916004840191602090910190612734565b5060a09190910151600590910180546001600160a01b0319166001600160a01b03909216919091179055505050565b6001546001600160a01b03163314611ba95760405162461bcd60e51b81526004016105bb90612dac565b600082118015611bbb57506003548211155b611bd75760405162461bcd60e51b81526004016105bb9061319e565b60008111611c275760405162461bcd60e51b815260206004820152601f60248201527f50726963652073686f756c642062652067726561746572207468616e20302e0060448201526064016105bb565b60009182526007602052604090912060020155565b6001546001600160a01b03163314611c665760405162461bcd60e51b81526004016105bb90612dac565b600082118015611c7857506006548211155b611c945760405162461bcd60e51b81526004016105bb9061320d565b801580611ca15750806001145b611ced5760405162461bcd60e51b815260206004820152601f60248201527f5374617475732073686f756c64206265206569746865722030206f7220312e0060448201526064016105bb565b6000918252600a602052604090912060030155565b6000606060008060608060006060600089118015611d2257506003548911155b611da95760405162461bcd60e51b815260206004820152604c60248201527f50726f647563742069642073686f756c6420626520677265617465722074686160448201527f6e203020616e64206c657373207468616e206f7220657175616c20746f20707260648201526b37b23ab1ba1031b7bab73a1760a11b608482015260a4016105bb565b6000600760008b81526020019081526020016000206040518061010001604052908160008201548152602001600182018054611de490612eab565b80601f0160208091040260200160405190810160405280929190818152602001828054611e1090612eab565b8015611e5d5780601f10611e3257610100808354040283529160200191611e5d565b820191906000526020600020905b815481529060010190602001808311611e4057829003601f168201915b505050505081526020016002820154815260200160038201548152602001600482018054611e8a90612eab565b80601f0160208091040260200160405190810160405280929190818152602001828054611eb690612eab565b8015611f035780601f10611ed857610100808354040283529160200191611f03565b820191906000526020600020905b815481529060010190602001808311611ee657829003601f168201915b50505050508152602001600582018054611f1c90612eab565b80601f0160208091040260200160405190810160405280929190818152602001828054611f4890612eab565b8015611f955780601f10611f6a57610100808354040283529160200191611f95565b820191906000526020600020905b815481529060010190602001808311611f7857829003601f168201915b5050505050815260200160068201548152602001600782018054611fb890612eab565b80601f0160208091040260200160405190810160405280929190818152602001828054611fe490612eab565b80156120315780601f1061200657610100808354040283529160200191612031565b820191906000526020600020905b81548152906001019060200180831161201457829003601f168201915b5050505050815250509050806000015181602001518260400151836060015184608001518560a001518660c001518760e001519850985098509850985098509850985050919395975091939597565b60006060806000806000808711801561209b57506005548711155b61211e5760405162461bcd60e51b815260206004820152604860248201527f4f726465722069642073686f756c642062652067726561746572207468616e2060448201527f3020616e64206c657373207468616e206f7220657175616c20746f206f726465606482015267391031b7bab73a1760c11b608482015260a4016105bb565b60005b600454811161225857600081815260086020526040902060050154336001600160a01b03909116036122465760005b60008281526008602052604090206004015481101561224457600082815260086020526040902060040180548a91908390811061218f5761218f613035565b90600052602060002001540315612244576000828152600860205260409020600401546121be906001906130a4565b8103612232576001546001600160a01b031633146122325760405162461bcd60e51b815260206004820152602b60248201527f4f6e6c79206f776e657220616e642062757965722063616e20676574206f726460448201526a32b9103232ba30b4b6399760a91b60648201526084016105bb565b8061223c81612e92565b915050612150565b505b8061225081612e92565b915050612121565b506000878152600960209081526040808320815160c0810183528154815260018201805484518187028101870190955280855291949293858401939092908301828280156122c557602002820191906000526020600020905b8154815260200190600101908083116122b1575b505050505081526020016002820180548060200260200160405190810160405280929190818152602001828054801561231d57602002820191906000526020600020905b815481526020019060010190808311612309575b5050505050815260200160038201548152602001600482015481526020016005820154815250509050806000015181602001518260400151836060015184608001518560a001519650965096509650965096505091939550919395565b6001600160a01b0382166123a05760405162461bcd60e51b81526004016105bb90613153565b6001546001600160a01b03163314806123c15750336001600160a01b038316145b6124225760405162461bcd60e51b815260206004820152602c60248201527f4f6e6c79206f776e657220616e6420757365722063616e20757064617465207560448201526b39b2b91030b2323932b9b99760a11b60648201526084016105bb565b60008151116124435760405162461bcd60e51b81526004016105bb90613239565b60015b60045481116117c5576000818152600860205260409020600501546001600160a01b0380851691160361248e5760008181526008602052604090206003016117ad8382612f33565b8061249881612e92565b915050612446565b6001546001600160a01b031633146124ca5760405162461bcd60e51b81526004016105bb90612dac565b6001600160a01b03811661253c5760405162461bcd60e51b815260206004820152603360248201527f4361726577656c6c20746f6b656e20616464726573732073686f756c64206e6f6044820152723a1031329032b6b83a3c9037b910373ab6361760691b60648201526084016105bb565b600080546001600160a01b0319166001600160a01b0392909216919091179055565b6001546001600160a01b031633146125885760405162461bcd60e51b81526004016105bb90612dac565b60008111801561259a57506005548111155b6125da5760405162461bcd60e51b815260206004820152601160248201527024b73b30b634b21037b93232b91034b21760791b60448201526064016105bb565b600090815260096020526040812060040155565b6001546001600160a01b031633146126185760405162461bcd60e51b81526004016105bb90612dac565b6001600160a01b0381166126855760405162461bcd60e51b815260206004820152602e60248201527f4e6577206f776e657220616464726573732073686f756c64206e6f742062652060448201526d32b6b83a3c9037b910373ab6361760911b60648201526084016105bb565b600180546001600160a01b0319166001600160a01b0392909216919091179055565b6001546001600160a01b031633146126d15760405162461bcd60e51b81526004016105bb90612dac565b6000821180156126e357506003548211155b6126ff5760405162461bcd60e51b81526004016105bb9061319e565b6000811161271f5760405162461bcd60e51b81526004016105bb90612ff3565b60009182526007602052604090912060030155565b82805482825590600052602060002090810192821561276f579160200282015b8281111561276f578251825591602001919060010190612754565b5061277b92915061277f565b5090565b5b8082111561277b5760008155600101612780565b634e487b7160e01b600052604160045260246000fd5b604051601f8201601f1916810167ffffffffffffffff811182821017156127d3576127d3612794565b604052919050565b600082601f8301126127ec57600080fd5b813567ffffffffffffffff81111561280657612806612794565b612819601f8201601f19166020016127aa565b81815284602083860101111561282e57600080fd5b816020850160208301376000918101602001919091529392505050565b6000806040838503121561285e57600080fd5b823567ffffffffffffffff81111561287557600080fd5b612881858286016127db565b95602094909401359450505050565b60008060008060008060c087890312156128a957600080fd5b863567ffffffffffffffff808211156128c157600080fd5b6128cd8a838b016127db565b9750602089013596506040890135955060608901359150808211156128f157600080fd5b6128fd8a838b016127db565b9450608089013591508082111561291357600080fd5b61291f8a838b016127db565b935060a089013591508082111561293557600080fd5b5061294289828a016127db565b9150509295509295509295565b600082601f83011261296057600080fd5b8135602067ffffffffffffffff82111561297c5761297c612794565b8160051b61298b8282016127aa565b92835284810182019282810190878511156129a557600080fd5b83870192505b848310156129c4578235825291830191908301906129ab565b979650505050505050565b6000806000606084860312156129e457600080fd5b833567ffffffffffffffff808211156129fc57600080fd5b612a088783880161294f565b94506020860135915080821115612a1e57600080fd5b50612a2b8682870161294f565b925050604084013590509250925092565b600060208284031215612a4e57600080fd5b5035919050565b6000815180845260005b81811015612a7b57602081850181015186830182015201612a5f565b81811115612a8d576000602083870101525b50601f01601f19169290920160200192915050565b848152608060208201526000612abb6080830186612a55565b6040830194909452506060015292915050565b600060208284031215612ae057600080fd5b813567ffffffffffffffff811115612af757600080fd5b612b03848285016127db565b949350505050565b6001600160a01b0381168114612b2057600080fd5b50565b600060208284031215612b3557600080fd5b8135612b4081612b0b565b9392505050565b600081518084526020808501945080840160005b83811015612b7757815187529582019590820190600101612b5b565b509495945050505050565b86815260c060208201526000612b9b60c0830188612a55565b8281036040840152612bad8188612a55565b90508281036060840152612bc18187612a55565b90508281036080840152612bd58186612b47565b91505060018060a01b03831660a0830152979650505050505050565b60006101008a8352806020840152612c0b8184018b612a55565b90508860408401528760608401528281036080840152612c2b8188612a55565b905082810360a0840152612c3f8187612a55565b90508460c084015282810360e0840152612c598185612a55565b9b9a5050505050505050505050565b60008060408385031215612c7b57600080fd5b50508035926020909101359150565b60008060408385031215612c9d57600080fd5b8235612ca881612b0b565b9150602083013567ffffffffffffffff811115612cc457600080fd5b612cd0858286016127db565b9150509250929050565b600080600060608486031215612cef57600080fd5b833567ffffffffffffffff80821115612d0757600080fd5b612d13878388016127db565b94506020860135915080821115612d2957600080fd5b612d35878388016127db565b93506040860135915080821115612d4b57600080fd5b50612d58868287016127db565b9150509250925092565b86815260c060208201526000612d7b60c0830188612b47565b8281036040840152612d8d8188612b47565b60608401969096525050608081019290925260a0909101529392505050565b60208082526022908201527f4f6e6c79206f776e65722063616e2063616c6c20746869732066756e6374696f604082015261371760f11b606082015260800190565b60208082526021908201527f4e616d652073686f756c64206e6f7420626520656d707479206f72206e756c6c6040820152601760f91b606082015260800190565b6020808252602d908201527f446973636f756e742070657263656e746167652073686f756c6420626520677260408201526c32b0ba32b9103a3430b710181760991b606082015260800190565b634e487b7160e01b600052601160045260246000fd5b600060018201612ea457612ea4612e7c565b5060010190565b600181811c90821680612ebf57607f821691505b602082108103612edf57634e487b7160e01b600052602260045260246000fd5b50919050565b601f8211156117c557600081815260208120601f850160051c81016020861015612f0c5750805b601f850160051c820191505b81811015612f2b57828155600101612f18565b505050505050565b815167ffffffffffffffff811115612f4d57612f4d612794565b612f6181612f5b8454612eab565b84612ee5565b602080601f831160018114612f965760008415612f7e5750858301515b600019600386901b1c1916600185901b178555612f2b565b600085815260208120601f198616915b82811015612fc557888601518255948401946001909101908401612fa6565b5085821015612fe35787850151600019600388901b60f8161c191681555b5050505050600190811b01905550565b60208082526022908201527f5175616e746974792073686f756c642062652067726561746572207468616e20604082015261181760f11b606082015260800190565b634e487b7160e01b600052603260045260246000fd5b600081600019048311821515161561306557613065612e7c565b500290565b6000821982111561307d5761307d612e7c565b500190565b60008261309f57634e487b7160e01b600052601260045260246000fd5b500490565b6000828210156130b6576130b6612e7c565b500390565b6000602082840312156130cd57600080fd5b81518015158114612b4057600080fd5b60008083546130eb81612eab565b60018281168015613103576001811461311857613147565b60ff1984168752821515830287019450613147565b8760005260208060002060005b8581101561313e5781548a820152908401908201613125565b50505082870194505b50929695505050505050565b6020808252602b908201527f57616c6c657420616464726573732073686f756c64206e6f7420626520656d7060408201526a3a3c9037b910373ab6361760a91b606082015260800190565b60208082526013908201527224b73b30b634b210383937b23ab1ba1034b21760691b604082015260600190565b60208082526022908201527f50686f6e652073686f756c64206e6f7420626520656d707479206f72206e756c604082015261361760f11b606082015260800190565b60208082526012908201527124b73b30b634b21031b7bab837b71034b21760711b604082015260600190565b60208082526024908201527f416464726573732073686f756c64206e6f7420626520656d707479206f72206e6040820152633ab6361760e11b60608201526080019056fea2646970667358221220495831918d0f96093efa2710c438f02e4aa0297bfa171fd8a8dd7a738829ad3064736f6c634300080f0033",
    "sourcePath": "c:/Users/mstfa/Downloads/Temp/NetMeds-Clone-main/NetMeds-Clone-main/netmedsclone/src/web3/contracts/carewell.sol",
    "compiler": {
        "name": "solc",
        "version": "0.8.15+commit.e14f2714"
    },
    "functionHashes": {
        "addProduct(string,uint256,uint256,string,string,string)": "0a2f449e",
        "addUser(string,string,string)": "95c5fed4",
        "applyCoupon(string)": "3df3c68e",
        "carewellToken()": "8b8b5fb6",
        "cost()": "13faede6",
        "couponCount()": "d0e23923",
        "coupons(uint256)": "30828e92",
        "createCoupon(string,uint256)": "00d78d9e",
        "destroy()": "83197ef0",
        "getCoupon(uint256)": "936e3169",
        "getOrder(uint256)": "d09ef241",
        "getProduct(uint256)": "b9db15b4",
        "getUser(address)": "6f77926b",
        "initiateOrder(uint256[],uint256[],uint256)": "29fbfc41",
        "orderCount()": "2453ffa8",
        "orderDelivered(uint256)": "e742a182",
        "owner()": "8da5cb5b",
        "productCount()": "e0f6ef87",
        "products(uint256)": "7acc0b20",
        "transferOwnership(address)": "f2fde38b",
        "updateCarewellToken(address)": "e1d7b3db",
        "updateCouponDiscountPercentage(uint256,uint256)": "8d418b26",
        "updateCouponStatus(uint256,uint256)": "9ee82a0e",
        "updateProductPrice(uint256,uint256)": "9c3bddb2",
        "updateProductQuantity(uint256,uint256)": "fcc93b0b",
        "updateProductStatus(uint256,uint256)": "80cadc73",
        "updateUserAddress(address,string)": "d75ff08c",
        "updateUserPhone(address,string)": "8585ed74",
        "userCount()": "07973ccf"
    },
    "gasEstimates": {
        "creation": {
            "codeDepositCost": "2595800",
            "executionCost": "44938",
            "totalCost": "2640738"
        },
        "external": {
            "addProduct(string,uint256,uint256,string,string,string)": "infinite",
            "addUser(string,string,string)": "infinite",
            "applyCoupon(string)": "infinite",
            "carewellToken()": "2448",
            "cost()": "2330",
            "couponCount()": "2351",
            "coupons(uint256)": "infinite",
            "createCoupon(string,uint256)": "infinite",
            "destroy()": "32063",
            "getCoupon(uint256)": "infinite",
            "getOrder(uint256)": "infinite",
            "getProduct(uint256)": "infinite",
            "getUser(address)": "infinite",
            "initiateOrder(uint256[],uint256[],uint256)": "infinite",
            "orderCount()": "2352",
            "orderDelivered(uint256)": "9659",
            "owner()": "2405",
            "productCount()": "2395",
            "products(uint256)": "infinite",
            "transferOwnership(address)": "26828",
            "updateCarewellToken(address)": "26784",
            "updateCouponDiscountPercentage(uint256,uint256)": "26788",
            "updateCouponStatus(uint256,uint256)": "26856",
            "updateProductPrice(uint256,uint256)": "26809",
            "updateProductQuantity(uint256,uint256)": "26852",
            "updateProductStatus(uint256,uint256)": "26812",
            "updateUserAddress(address,string)": "infinite",
            "updateUserPhone(address,string)": "infinite",
            "userCount()": "2353"
        }
    }
}